{
  "contractName": "BlockchainPassword",
  "abi": [
    {
      "constant": false,
      "inputs": [
        {
          "name": "login",
          "type": "string"
        },
        {
          "name": "username",
          "type": "string"
        },
        {
          "name": "password",
          "type": "string"
        }
      ],
      "name": "setLogin",
      "outputs": [
        {
          "name": "success",
          "type": "bool"
        }
      ],
      "payable": false,
      "stateMutability": "nonpayable",
      "type": "function"
    },
    {
      "constant": false,
      "inputs": [],
      "name": "kill",
      "outputs": [],
      "payable": false,
      "stateMutability": "nonpayable",
      "type": "function"
    },
    {
      "constant": true,
      "inputs": [],
      "name": "owner",
      "outputs": [
        {
          "name": "",
          "type": "address"
        }
      ],
      "payable": false,
      "stateMutability": "view",
      "type": "function"
    },
    {
      "inputs": [],
      "payable": false,
      "stateMutability": "nonpayable",
      "type": "constructor"
    }
  ],
  "bytecode": "0x6060604052341561000f57600080fd5b336000806101000a81548173ffffffffffffffffffffffffffffffffffffffff021916908373ffffffffffffffffffffffffffffffffffffffff1602179055506102b08061005e6000396000f300606060405260043610610057576000357c0100000000000000000000000000000000000000000000000000000000900463ffffffff1680633ce4345f1461005c57806341c0e1b5146101575780638da5cb5b1461016c575b600080fd5b341561006757600080fd5b61013d600480803590602001908201803590602001908080601f0160208091040260200160405190810160405280939291908181526020018383808284378201915050505050509190803590602001908201803590602001908080601f0160208091040260200160405190810160405280939291908181526020018383808284378201915050505050509190803590602001908201803590602001908080601f016020809104026020016040519081016040528093929190818152602001838380828437820191505050505050919050506101c1565b604051808215151515815260200191505060405180910390f35b341561016257600080fd5b61016a6101ce565b005b341561017757600080fd5b61017f61025f565b604051808273ffffffffffffffffffffffffffffffffffffffff1673ffffffffffffffffffffffffffffffffffffffff16815260200191505060405180910390f35b6000600190509392505050565b6000809054906101000a900473ffffffffffffffffffffffffffffffffffffffff1673ffffffffffffffffffffffffffffffffffffffff163373ffffffffffffffffffffffffffffffffffffffff16141561025d576000809054906101000a900473ffffffffffffffffffffffffffffffffffffffff1673ffffffffffffffffffffffffffffffffffffffff16ff5b565b6000809054906101000a900473ffffffffffffffffffffffffffffffffffffffff16815600a165627a7a7230582078c7dbf5cdcf7991ae606505de612ffec1cbf5988ae7cfc0a27c219c5874800f0029",
  "source": "pragma solidity ^0.4.17;\n\ncontract BlockchainPassword {\n  address public owner;\n  string[] private logins;\n\n  // Constructor\n  function BlockchainPassword() public {\n    owner = msg.sender;\n  }\n\n  function setLogin(string login, string username, string password) public returns (bool success) {\n    return true;\n  }\n\n  function kill() public {\n    if (msg.sender == owner) selfdestruct(owner);\n  }\n}\n\n",
  "sourcePath": "/home/me/Documents/blockchain-password/contracts/BlockchainPassword.sol",
  "compiler": {
    "name": "solc",
    "version": "0.4.18+commit.9cf6e910.Emscripten.clang"
  },
  "schemaVersion": "1.0.1",
  "updatedAt": "2017-12-25T20:08:03.735Z"
}